{
  "contractName": "dBank",
  "abi": [
    {
      "inputs": [
        {
          "internalType": "contract Token",
          "name": "_token",
          "type": "address"
        }
      ],
      "stateMutability": "nonpayable",
      "type": "constructor"
    },
    {
      "anonymous": false,
      "inputs": [
        {
          "indexed": true,
          "internalType": "address",
          "name": "user",
          "type": "address"
        },
        {
          "indexed": false,
          "internalType": "uint256",
          "name": "collateralEtherAmount",
          "type": "uint256"
        },
        {
          "indexed": false,
          "internalType": "uint256",
          "name": "borrowedTokenAmount",
          "type": "uint256"
        },
        {
          "indexed": false,
          "internalType": "bool",
          "name": "_isBorrowed",
          "type": "bool"
        }
      ],
      "name": "_Borrow",
      "type": "event"
    },
    {
      "anonymous": false,
      "inputs": [
        {
          "indexed": true,
          "internalType": "address",
          "name": "user",
          "type": "address"
        },
        {
          "indexed": false,
          "internalType": "uint256",
          "name": "etherAmount",
          "type": "uint256"
        },
        {
          "indexed": false,
          "internalType": "uint256",
          "name": "timeStart",
          "type": "uint256"
        },
        {
          "indexed": false,
          "internalType": "bool",
          "name": "_isDeposited",
          "type": "bool"
        }
      ],
      "name": "_Deposit",
      "type": "event"
    },
    {
      "anonymous": false,
      "inputs": [
        {
          "indexed": true,
          "internalType": "address",
          "name": "user",
          "type": "address"
        },
        {
          "indexed": false,
          "internalType": "uint256",
          "name": "fee",
          "type": "uint256"
        },
        {
          "indexed": false,
          "internalType": "bool",
          "name": "_isBorrowed",
          "type": "bool"
        }
      ],
      "name": "_PayOff",
      "type": "event"
    },
    {
      "anonymous": false,
      "inputs": [
        {
          "indexed": true,
          "internalType": "address",
          "name": "user",
          "type": "address"
        },
        {
          "indexed": false,
          "internalType": "uint256",
          "name": "etherAmount",
          "type": "uint256"
        },
        {
          "indexed": false,
          "internalType": "uint256",
          "name": "depositTime",
          "type": "uint256"
        },
        {
          "indexed": false,
          "internalType": "uint256",
          "name": "interest",
          "type": "uint256"
        },
        {
          "indexed": false,
          "internalType": "bool",
          "name": "_isDeposited",
          "type": "bool"
        }
      ],
      "name": "_Withdraw",
      "type": "event"
    },
    {
      "inputs": [
        {
          "internalType": "address",
          "name": "",
          "type": "address"
        }
      ],
      "name": "collateralEther",
      "outputs": [
        {
          "internalType": "uint256",
          "name": "",
          "type": "uint256"
        }
      ],
      "stateMutability": "view",
      "type": "function",
      "constant": true
    },
    {
      "inputs": [
        {
          "internalType": "address",
          "name": "",
          "type": "address"
        }
      ],
      "name": "depositStart",
      "outputs": [
        {
          "internalType": "uint256",
          "name": "",
          "type": "uint256"
        }
      ],
      "stateMutability": "view",
      "type": "function",
      "constant": true
    },
    {
      "inputs": [
        {
          "internalType": "address",
          "name": "",
          "type": "address"
        }
      ],
      "name": "etherBalanceOf",
      "outputs": [
        {
          "internalType": "uint256",
          "name": "",
          "type": "uint256"
        }
      ],
      "stateMutability": "view",
      "type": "function",
      "constant": true
    },
    {
      "inputs": [
        {
          "internalType": "address",
          "name": "",
          "type": "address"
        }
      ],
      "name": "isBorrowed",
      "outputs": [
        {
          "internalType": "bool",
          "name": "",
          "type": "bool"
        }
      ],
      "stateMutability": "view",
      "type": "function",
      "constant": true
    },
    {
      "inputs": [
        {
          "internalType": "address",
          "name": "",
          "type": "address"
        }
      ],
      "name": "isDeposited",
      "outputs": [
        {
          "internalType": "bool",
          "name": "",
          "type": "bool"
        }
      ],
      "stateMutability": "view",
      "type": "function",
      "constant": true
    },
    {
      "inputs": [],
      "name": "deposit",
      "outputs": [],
      "stateMutability": "payable",
      "type": "function",
      "payable": true
    },
    {
      "inputs": [
        {
          "internalType": "address payable",
          "name": "destAccount",
          "type": "address"
        }
      ],
      "name": "withdraw",
      "outputs": [],
      "stateMutability": "nonpayable",
      "type": "function"
    },
    {
      "inputs": [],
      "name": "borrow",
      "outputs": [],
      "stateMutability": "payable",
      "type": "function",
      "payable": true
    },
    {
      "inputs": [
        {
          "internalType": "address payable",
          "name": "destAccount",
          "type": "address"
        }
      ],
      "name": "payOff",
      "outputs": [],
      "stateMutability": "nonpayable",
      "type": "function"
    },
    {
      "inputs": [],
      "name": "buyDBC",
      "outputs": [],
      "stateMutability": "payable",
      "type": "function",
      "payable": true
    },
    {
      "inputs": [
        {
          "internalType": "uint256",
          "name": "_amount",
          "type": "uint256"
        },
        {
          "internalType": "address payable",
          "name": "fromAccount",
          "type": "address"
        }
      ],
      "name": "sellDBC",
      "outputs": [],
      "stateMutability": "nonpayable",
      "type": "function"
    }
  ],
  "bytecode": "0x60806040523480156200001157600080fd5b5060405162001e3e38038062001e3e833981810160405281019062000037919062000095565b806000806101000a81548173ffffffffffffffffffffffffffffffffffffffff021916908373ffffffffffffffffffffffffffffffffffffffff1602179055505062000123565b6000815190506200008f8162000109565b92915050565b600060208284031215620000a857600080fd5b6000620000b8848285016200007e565b91505092915050565b6000620000ce82620000e9565b9050919050565b6000620000e282620000c1565b9050919050565b600073ffffffffffffffffffffffffffffffffffffffff82169050919050565b6200011481620000d5565b81146200012057600080fd5b50565b611d0b80620001336000396000f3fe60806040526004361061009c5760003560e01c8063a93145d911610064578063a93145d9146101aa578063cdebd932146101b4578063d0e30db0146101f1578063e2d3ff03146101fb578063e68d356914610224578063ff87930a1461022e5761009c565b8063179fc99f146100a157806351cff8d9146100de578063737320241461010757806375a40d2a146101445780637841c78114610181575b600080fd5b3480156100ad57600080fd5b506100c860048036038101906100c3919061148a565b61026b565b6040516100d5919061183a565b60405180910390f35b3480156100ea57600080fd5b50610105600480360381019061010091906114b3565b610283565b005b34801561011357600080fd5b5061012e6004803603810190610129919061148a565b6106ba565b60405161013b919061173f565b60405180910390f35b34801561015057600080fd5b5061016b6004803603810190610166919061148a565b6106da565b604051610178919061183a565b60405180910390f35b34801561018d57600080fd5b506101a860048036038101906101a391906114b3565b6106f2565b005b6101b2610adc565b005b3480156101c057600080fd5b506101db60048036038101906101d6919061148a565b610bbb565b6040516101e8919061173f565b60405180910390f35b6101f9610bdb565b005b34801561020757600080fd5b50610222600480360381019061021d919061152e565b610ecc565b005b61022c611089565b005b34801561023a57600080fd5b506102556004803603810190610250919061148a565b611409565b604051610262919061183a565b60405180910390f35b60026020528060005260406000206000915090505481565b60011515600460008373ffffffffffffffffffffffffffffffffffffffff1673ffffffffffffffffffffffffffffffffffffffff16815260200190815260200160002060009054906101000a900460ff16151514610316576040517f08c379a000000000000000000000000000000000000000000000000000000000815260040161030d906117ba565b60405180910390fd5b6000600260008373ffffffffffffffffffffffffffffffffffffffff1673ffffffffffffffffffffffffffffffffffffffff1681526020019081526020016000205490506000600160008473ffffffffffffffffffffffffffffffffffffffff1673ffffffffffffffffffffffffffffffffffffffff16815260200190815260200160002054426103a791906119ec565b90506000662386f26fc10000600260008673ffffffffffffffffffffffffffffffffffffffff1673ffffffffffffffffffffffffffffffffffffffff168152602001908152602001600020546103fd9190611961565b6301e3373161040c9190611992565b90506000828261041c9190611992565b90508473ffffffffffffffffffffffffffffffffffffffff166108fc600260008873ffffffffffffffffffffffffffffffffffffffff1673ffffffffffffffffffffffffffffffffffffffff168152602001908152602001600020549081150290604051600060405180830381858888f193505050501580156104a3573d6000803e3d6000fd5b5060008054906101000a900473ffffffffffffffffffffffffffffffffffffffff1673ffffffffffffffffffffffffffffffffffffffff166340c10f1986836040518363ffffffff1660e01b81526004016104ff9291906116ed565b600060405180830381600087803b15801561051957600080fd5b505af115801561052d573d6000803e3d6000fd5b505050506000600160008773ffffffffffffffffffffffffffffffffffffffff1673ffffffffffffffffffffffffffffffffffffffff168152602001908152602001600020819055506000600260008773ffffffffffffffffffffffffffffffffffffffff1673ffffffffffffffffffffffffffffffffffffffff168152602001908152602001600020819055506000600460008773ffffffffffffffffffffffffffffffffffffffff1673ffffffffffffffffffffffffffffffffffffffff16815260200190815260200160002060006101000a81548160ff0219169083151502179055508473ffffffffffffffffffffffffffffffffffffffff167f76832d47f052cd4f74e233fe19a9cd6ba12947c43e9cea554f852b17b43cd4da858584600460008b73ffffffffffffffffffffffffffffffffffffffff1673ffffffffffffffffffffffffffffffffffffffff16815260200190815260200160002060009054906101000a900460ff166040516106ab94939291906118b5565b60405180910390a25050505050565b60046020528060005260406000206000915054906101000a900460ff1681565b60036020528060005260406000206000915090505481565b60011515600560008373ffffffffffffffffffffffffffffffffffffffff1673ffffffffffffffffffffffffffffffffffffffff16815260200190815260200160002060009054906101000a900460ff16151514610785576040517f08c379a000000000000000000000000000000000000000000000000000000000815260040161077c906117da565b60405180910390fd5b60008054906101000a900473ffffffffffffffffffffffffffffffffffffffff1673ffffffffffffffffffffffffffffffffffffffff166323b872dd82306002600360008773ffffffffffffffffffffffffffffffffffffffff1673ffffffffffffffffffffffffffffffffffffffff1681526020019081526020016000205461080f9190611961565b6040518463ffffffff1660e01b815260040161082d939291906116b6565b602060405180830381600087803b15801561084757600080fd5b505af115801561085b573d6000803e3d6000fd5b505050506040513d601f19601f8201168201806040525081019061087f91906114dc565b6108be576040517f08c379a00000000000000000000000000000000000000000000000000000000081526004016108b59061179a565b60405180910390fd5b6000600a600360008473ffffffffffffffffffffffffffffffffffffffff1673ffffffffffffffffffffffffffffffffffffffff1681526020019081526020016000205461090c9190611961565b90508173ffffffffffffffffffffffffffffffffffffffff166108fc82600360008673ffffffffffffffffffffffffffffffffffffffff1673ffffffffffffffffffffffffffffffffffffffff1681526020019081526020016000205461097391906119ec565b9081150290604051600060405180830381858888f1935050505015801561099e573d6000803e3d6000fd5b506000600360008473ffffffffffffffffffffffffffffffffffffffff1673ffffffffffffffffffffffffffffffffffffffff168152602001908152602001600020819055506000600560008473ffffffffffffffffffffffffffffffffffffffff1673ffffffffffffffffffffffffffffffffffffffff16815260200190815260200160002060006101000a81548160ff0219169083151502179055508173ffffffffffffffffffffffffffffffffffffffff167f60a265f652d2dd80d9a44235ec956e5a6002929418b34e21ae1a7acead74560882600560008673ffffffffffffffffffffffffffffffffffffffff1673ffffffffffffffffffffffffffffffffffffffff16815260200190815260200160002060009054906101000a900460ff16604051610ad0929190611855565b60405180910390a25050565b662386f26fc10000341015610b26576040517f08c379a0000000000000000000000000000000000000000000000000000000008152600401610b1d9061181a565b60405180910390fd5b600034905060008054906101000a900473ffffffffffffffffffffffffffffffffffffffff1673ffffffffffffffffffffffffffffffffffffffff166340c10f1933836040518363ffffffff1660e01b8152600401610b86929190611716565b600060405180830381600087803b158015610ba057600080fd5b505af1158015610bb4573d6000803e3d6000fd5b5050505050565b60056020528060005260406000206000915054906101000a900460ff1681565b60001515600460003373ffffffffffffffffffffffffffffffffffffffff1673ffffffffffffffffffffffffffffffffffffffff16815260200190815260200160002060009054906101000a900460ff16151514610c6e576040517f08c379a0000000000000000000000000000000000000000000000000000000008152600401610c65906117fa565b60405180910390fd5b662386f26fc10000341015610cb8576040517f08c379a0000000000000000000000000000000000000000000000000000000008152600401610caf9061177a565b60405180910390fd5b34600260003373ffffffffffffffffffffffffffffffffffffffff1673ffffffffffffffffffffffffffffffffffffffff16815260200190815260200160002054610d03919061190b565b600260003373ffffffffffffffffffffffffffffffffffffffff1673ffffffffffffffffffffffffffffffffffffffff1681526020019081526020016000208190555042600160003373ffffffffffffffffffffffffffffffffffffffff1673ffffffffffffffffffffffffffffffffffffffff16815260200190815260200160002054610d91919061190b565b600160003373ffffffffffffffffffffffffffffffffffffffff1673ffffffffffffffffffffffffffffffffffffffff168152602001908152602001600020819055506001600460003373ffffffffffffffffffffffffffffffffffffffff1673ffffffffffffffffffffffffffffffffffffffff16815260200190815260200160002060006101000a81548160ff0219169083151502179055503373ffffffffffffffffffffffffffffffffffffffff167fa929a36da6809afc44ba6b47c41ceb756209759eddcf05bf22ab7d013ba0f2553442600460003373ffffffffffffffffffffffffffffffffffffffff1673ffffffffffffffffffffffffffffffffffffffff16815260200190815260200160002060009054906101000a900460ff16604051610ec29392919061187e565b60405180910390a2565b8160008054906101000a900473ffffffffffffffffffffffffffffffffffffffff1673ffffffffffffffffffffffffffffffffffffffff166370a08231836040518263ffffffff1660e01b8152600401610f26919061169b565b60206040518083038186803b158015610f3e57600080fd5b505afa158015610f52573d6000803e3d6000fd5b505050506040513d601f19601f82011682018060405250810190610f769190611505565b1015610f8157600080fd5b81471015610f8e57600080fd5b60008054906101000a900473ffffffffffffffffffffffffffffffffffffffff1673ffffffffffffffffffffffffffffffffffffffff166323b872dd8230856040518463ffffffff1660e01b8152600401610feb939291906116b6565b602060405180830381600087803b15801561100557600080fd5b505af1158015611019573d6000803e3d6000fd5b505050506040513d601f19601f8201168201806040525081019061103d91906114dc565b508073ffffffffffffffffffffffffffffffffffffffff166108fc839081150290604051600060405180830381858888f19350505050158015611084573d6000803e3d6000fd5b505050565b662386f26fc100003410156110d3576040517f08c379a00000000000000000000000000000000000000000000000000000000081526004016110ca9061181a565b60405180910390fd5b60001515600560003373ffffffffffffffffffffffffffffffffffffffff1673ffffffffffffffffffffffffffffffffffffffff16815260200190815260200160002060009054906101000a900460ff16151514611166576040517f08c379a000000000000000000000000000000000000000000000000000000000815260040161115d9061175a565b60405180910390fd5b34600360003373ffffffffffffffffffffffffffffffffffffffff1673ffffffffffffffffffffffffffffffffffffffff168152602001908152602001600020546111b1919061190b565b600360003373ffffffffffffffffffffffffffffffffffffffff1673ffffffffffffffffffffffffffffffffffffffff1681526020019081526020016000208190555060006002600360003373ffffffffffffffffffffffffffffffffffffffff1673ffffffffffffffffffffffffffffffffffffffff168152602001908152602001600020546112429190611961565b905060008054906101000a900473ffffffffffffffffffffffffffffffffffffffff1673ffffffffffffffffffffffffffffffffffffffff166340c10f1933836040518363ffffffff1660e01b815260040161129f929190611716565b600060405180830381600087803b1580156112b957600080fd5b505af11580156112cd573d6000803e3d6000fd5b505050506001600560003373ffffffffffffffffffffffffffffffffffffffff1673ffffffffffffffffffffffffffffffffffffffff16815260200190815260200160002060006101000a81548160ff0219169083151502179055503373ffffffffffffffffffffffffffffffffffffffff167fdf64b93551eabf87b59c83b50675fad8ef4f1797d7f7dfeac7c26ce2a23d40b3600360003373ffffffffffffffffffffffffffffffffffffffff1673ffffffffffffffffffffffffffffffffffffffff1681526020019081526020016000205483600560003373ffffffffffffffffffffffffffffffffffffffff1673ffffffffffffffffffffffffffffffffffffffff16815260200190815260200160002060009054906101000a900460ff166040516113fe9392919061187e565b60405180910390a250565b60016020528060005260406000206000915090505481565b60008135905061143081611c79565b92915050565b60008135905061144581611c90565b92915050565b60008151905061145a81611ca7565b92915050565b60008135905061146f81611cbe565b92915050565b60008151905061148481611cbe565b92915050565b60006020828403121561149c57600080fd5b60006114aa84828501611421565b91505092915050565b6000602082840312156114c557600080fd5b60006114d384828501611436565b91505092915050565b6000602082840312156114ee57600080fd5b60006114fc8482850161144b565b91505092915050565b60006020828403121561151757600080fd5b600061152584828501611475565b91505092915050565b6000806040838503121561154157600080fd5b600061154f85828601611460565b925050602061156085828601611436565b9150509250929050565b61157381611a7a565b82525050565b61158281611a20565b82525050565b61159181611a44565b82525050565b60006115a46019836118fa565b91506115af82611b0e565b602082019050919050565b60006115c76022836118fa565b91506115d282611b37565b604082019050919050565b60006115ea601b836118fa565b91506115f582611b86565b602082019050919050565b600061160d601a836118fa565b915061161882611baf565b602082019050919050565b60006116306016836118fa565b915061163b82611bd8565b602082019050919050565b6000611653601d836118fa565b915061165e82611c01565b602082019050919050565b60006116766025836118fa565b915061168182611c2a565b604082019050919050565b61169581611a70565b82525050565b60006020820190506116b0600083018461156a565b92915050565b60006060820190506116cb600083018661156a565b6116d86020830185611579565b6116e5604083018461168c565b949350505050565b6000604082019050611702600083018561156a565b61170f602083018461168c565b9392505050565b600060408201905061172b6000830185611579565b611738602083018461168c565b9392505050565b60006020820190506117546000830184611588565b92915050565b6000602082019050818103600083015261177381611597565b9050919050565b60006020820190508181036000830152611793816115ba565b9050919050565b600060208201905081810360008301526117b3816115dd565b9050919050565b600060208201905081810360008301526117d381611600565b9050919050565b600060208201905081810360008301526117f381611623565b9050919050565b6000602082019050818103600083015261181381611646565b9050919050565b6000602082019050818103600083015261183381611669565b9050919050565b600060208201905061184f600083018461168c565b92915050565b600060408201905061186a600083018561168c565b6118776020830184611588565b9392505050565b6000606082019050611893600083018661168c565b6118a0602083018561168c565b6118ad6040830184611588565b949350505050565b60006080820190506118ca600083018761168c565b6118d7602083018661168c565b6118e4604083018561168c565b6118f16060830184611588565b95945050505050565b600082825260208201905092915050565b600061191682611a70565b915061192183611a70565b9250827fffffffffffffffffffffffffffffffffffffffffffffffffffffffffffffffff0382111561195657611955611ab0565b5b828201905092915050565b600061196c82611a70565b915061197783611a70565b92508261198757611986611adf565b5b828204905092915050565b600061199d82611a70565b91506119a883611a70565b9250817fffffffffffffffffffffffffffffffffffffffffffffffffffffffffffffffff04831182151516156119e1576119e0611ab0565b5b828202905092915050565b60006119f782611a70565b9150611a0283611a70565b925082821015611a1557611a14611ab0565b5b828203905092915050565b6000611a2b82611a50565b9050919050565b6000611a3d82611a50565b9050919050565b60008115159050919050565b600073ffffffffffffffffffffffffffffffffffffffff82169050919050565b6000819050919050565b6000611a8582611a8c565b9050919050565b6000611a9782611a9e565b9050919050565b6000611aa982611a50565b9050919050565b7f4e487b7100000000000000000000000000000000000000000000000000000000600052601160045260246000fd5b7f4e487b7100000000000000000000000000000000000000000000000000000000600052601260045260246000fd5b7f4572726f722c206c6f616e20616c72656164792074616b656e00000000000000600082015250565b7f4572726f722c206465706f736974206d757374206265203e3d20302e3031204560008201527f5448000000000000000000000000000000000000000000000000000000000000602082015250565b7f4572726f722c2063616e2774207265636569766520746f6b656e730000000000600082015250565b7f4572726f722c206e6f2070726576696f7573206465706f736974000000000000600082015250565b7f4572726f722c206c6f616e206e6f742061637469766500000000000000000000600082015250565b7f4572726f722c206465706f73697420616c726561647920616374697665000000600082015250565b7f4572726f722c20636f6c6c61746572616c206d757374206265203e3d20302e3060008201527f3120455448000000000000000000000000000000000000000000000000000000602082015250565b611c8281611a20565b8114611c8d57600080fd5b50565b611c9981611a32565b8114611ca457600080fd5b50565b611cb081611a44565b8114611cbb57600080fd5b50565b611cc781611a70565b8114611cd257600080fd5b5056fea26469706673582212201e0f2c0b45bd1a6fb3ffde385da9d6a3ed7b3a45d55fdae4e3cb3bacf0dd0bd264736f6c63430008040033",
  "immutableReferences": {},
  "source": "// SPDX-License-Identifier: MIT\r\npragma solidity >=0.6.0 <0.9.0;\r\n\r\nimport \"./Token.sol\";\r\n\r\ncontract dBank {\r\n\r\n  Token private token;\r\n\r\n  mapping(address => uint) public depositStart;\r\n  mapping(address => uint) public etherBalanceOf;\r\n  mapping(address => uint) public collateralEther;\r\n\r\n  mapping(address => bool) public isDeposited;\r\n  mapping(address => bool) public isBorrowed;\r\n\r\n  event _Deposit(address indexed user, uint etherAmount, uint timeStart, bool _isDeposited);\r\n  event _Withdraw(address indexed user, uint etherAmount, uint depositTime, uint interest, bool _isDeposited);\r\n  event _Borrow(address indexed user, uint collateralEtherAmount, uint borrowedTokenAmount, bool _isBorrowed);\r\n  event _PayOff(address indexed user, uint fee, bool _isBorrowed);\r\n\r\n  constructor(Token _token) {\r\n    token = _token;\r\n  }\r\n\r\n  function deposit() payable public {\r\n    require(isDeposited[msg.sender] == false, 'Error, deposit already active');\r\n    require(msg.value>=1e16, 'Error, deposit must be >= 0.01 ETH');\r\n\r\n    etherBalanceOf[msg.sender] = etherBalanceOf[msg.sender] + msg.value;\r\n    depositStart[msg.sender] = depositStart[msg.sender] + block.timestamp;\r\n\r\n    isDeposited[msg.sender] = true; //activate deposit status\r\n    emit _Deposit(msg.sender, msg.value, block.timestamp, isDeposited[msg.sender]);\r\n  }\r\n\r\n  function withdraw(address payable destAccount) public {\r\n    require(isDeposited[destAccount]==true, 'Error, no previous deposit');\r\n    uint userBalance = etherBalanceOf[destAccount]; //for event\r\n\r\n    //check user's hodl time\r\n    uint depositTime = block.timestamp - depositStart[destAccount];\r\n\r\n    //31668017 - interest(10% APY) per second for min. deposit amount (0.01 ETH), cuz:\r\n    //1e15(10% of 0.01 ETH) / 31577600 (seconds in 365.25 days)\r\n\r\n    //(etherBalanceOf[msg.sender] / 1e16) - calc. how much higher interest will be (based on deposit), e.g.:\r\n    //for min. deposit (0.01 ETH), (etherBalanceOf[msg.sender] / 1e16) = 1 (the same, 31668017/s)\r\n    //for deposit 0.02 ETH, (etherBalanceOf[msg.sender] / 1e16) = 2 (doubled, (2*31668017)/s)\r\n    uint interestPerSecond = 31668017 * (etherBalanceOf[destAccount] / 1e16);\r\n    uint interest = interestPerSecond * depositTime;\r\n\r\n    //send funds to user\r\n    destAccount.transfer(etherBalanceOf[destAccount]); //eth back to user\r\n    token.mint(destAccount, interest); //interest to user\r\n\r\n    //reset depositer data\r\n    depositStart[destAccount] = 0;\r\n    etherBalanceOf[destAccount] = 0;\r\n    isDeposited[destAccount] = false;\r\n    emit _Withdraw(destAccount, userBalance, depositTime, interest, isDeposited[destAccount]);\r\n  }\r\n\r\n  function borrow() payable public {\r\n    require(msg.value>=1e16, 'Error, collateral must be >= 0.01 ETH');\r\n    require(isBorrowed[msg.sender] == false, 'Error, loan already taken');\r\n\r\n    //this Ether will be locked till user payOff the loan\r\n    collateralEther[msg.sender] = collateralEther[msg.sender] + msg.value;\r\n\r\n    //calc tokens amount to mint, 50% of msg.value\r\n    uint tokensToMint = collateralEther[msg.sender] / 2;\r\n\r\n    //mint&send tokens to user\r\n    token.mint(msg.sender, tokensToMint);\r\n\r\n    //activate borrower's loan status\r\n    isBorrowed[msg.sender] = true;\r\n\r\n    emit _Borrow(msg.sender, collateralEther[msg.sender], tokensToMint, isBorrowed[msg.sender]);\r\n  }\r\n\r\n  function payOff(address payable destAccount) public {\r\n    require(isBorrowed[destAccount] == true, 'Error, loan not active');\r\n    require(token.transferFrom(destAccount, address(this), collateralEther[destAccount]/2), \"Error, can't receive tokens\"); //must approve dBank 1st\r\n\r\n    uint fee = collateralEther[destAccount]/10; //calc 10% fee\r\n\r\n    //send user's collateral minus fee\r\n    destAccount.transfer(collateralEther[destAccount]-fee);\r\n\r\n    //reset borrower's data\r\n    collateralEther[destAccount] = 0;\r\n    isBorrowed[destAccount] = false;\r\n\r\n    emit _PayOff(destAccount, fee, isBorrowed[destAccount]);\r\n  }\r\n\r\n  function buyDBC() public payable {\r\n    require(msg.value>=1e16, 'Error, collateral must be >= 0.01 ETH');\r\n    uint tokenAmount = msg.value;\r\n    token.mint(msg.sender, tokenAmount);\r\n  }\r\n\r\n  function sellDBC(uint _amount, address payable fromAccount) public {\r\n    require(token.balanceOf(fromAccount) >= _amount);\r\n\r\n    require(address(this).balance >= _amount);\r\n\r\n    token.transferFrom(fromAccount, address(this), _amount);\r\n    \r\n    fromAccount.transfer(_amount);\r\n        \r\n  }\r\n}\r\n",
  "sourcePath": "/Users/rtrollope/git/dbank/src/contracts/dBank.sol",
  "compiler": {
    "name": "solc",
    "version": "0.8.4+commit.c7e474f2.Emscripten.clang"
  },
  "schemaVersion": "3.4.0",
  "updatedAt": "2021-05-07T15:34:13.640Z",
  "networkType": "ethereum",
  "devdoc": {
    "kind": "dev",
    "methods": {},
    "version": 1
  },
  "userdoc": {
    "kind": "user",
    "methods": {},
    "version": 1
  }
}